:020000040800F2
:10000000B0050020010100085D2A00088B200008CF
:10001000592A000839080008592E0008000000007D
:10002000000000000000000000000000892A000815
:100030003D080008000000005F2A00088B2A000825
:100040001B0100081B0100081B0100081B01000820
:100050001B0100081B0100081B0100081B01000810
:100060001B0100081B0100081B0100081B01000800
:100070001B0100081B0100081B0100081B010008F0
:100080001B0100081B0100081B0100081B010008E0
:100090001B0100081B0100081B0100081B010008D0
:1000A0001B0100081B0100081B0100081B010008C0
:1000B000512B00081B0100081B0100081B01000850
:1000C0001B0100081B0100081B0100081B010008A0
:1000D0001B0100081B0100081B0100081B01000890
:1000E0001B0100081B0100081B010008DFF80CD0F1
:1000F00000F090FB00480047B9350008B00500202B
:100100000648804706480047FEE7FEE7FEE7FEE7B1
:10011000FEE7FEE7FEE7FEE7FEE7FEE7F92A000856
:10012000ED000008202A04DB203A21FA02F0002129
:10013000704721FA02F3D040C2F1200291400843F7
:1001400019467047D2B201E000F8012B491EFBD2DC
:1001500070470022F6E710B513460A4604461946D2
:10016000FFF7F0FF204610BD2DE9FE4F804681EAE3
:100170000300C00F0C46009021F0004123F0004521
:10018000B8EB0200A94105D24046214690461C46E4
:100190000B46024623F00040104347D0270DC7F31B
:1001A0000A00C3F30A510290401A019040286BDA0A
:1001B000C3F3130040F4801B0098924620B1002343
:1001C000D2EB030A63EB0B0B01985946C0F14002D6
:1001D000504600F0D9F906460D4650465946019A58
:1001E00000F0E1F910EB08006141002487EA1152A8
:1001F00084EAE7731A4340D0009A62B3019A012A55
:100200004FEA075215DC001B61EB02014FF0004280
:1002100002EA0752CDE90042001C41F58011324646
:100220002B4600F018FA03B0BDE8F08F4046214697
:10023000F9E7001B61EB0201001C41F58013001877
:100240005B412018A2F5001747EB030140EAD57087
:10025000B6196D4111E06D084FEA360645EAC075E2
:100260004FEA0752001B61EB0201001C41F58011AF
:1002700049084FEA30000019514132462B4603B07D
:10028000BDE8F04F00F0D8B90098012240000023EB
:10029000D0EB020263EBE073009821464FEAE07472
:1002A000B8EB000061EB0401E9E783F000435BE792
:1002B00081F0004158E72DE9FE4F81EA030404F084
:1002C000004421F0004100944FF0000B23F0004364
:1002D00050EA01045ED052EA03045BD0C3F30A542F
:1002E000C1F30A552C44A4F2F3340194A0FB025448
:1002F000C1F3130141F48011C3F3130343F48013DA
:1003000001FB024400FB034E840A970A44EA81542D
:1003100047EA8357A4FB076802958D0A05FB07850A
:100320004FEA932C04FB0C542705029D4FEA065814
:1003300047EA1637B5EB08056EEB070C870E920EF1
:1003400047EA811742EA8312A7FB0201B6EB0B01D1
:1003500064EB00042B0D43EA0C335E1844EB1C5095
:10036000DA465146E7FB0201C5F313044FEA0B33AB
:1003700043EA14534FEA0432019C43EA0603A4F112
:100380000C040294009CCDE900B400F064F903B0C1
:10039000BDE8F08F00200146F9E72DE9F04D81EA34
:1003A000030404F0004B21F0004514464FF0000A0E
:1003B00023F0004150EA050220D054EA01021DD08A
:1003C000C5F30A570246C5F31303C1F31300C1F383
:1003D0000A5640F4801543F48013A7EB0608101B5F
:1003E000D64608F2FD3873EB050002D308F1010888
:1003F00001E092185B41B8F1000F03DA00200146DA
:10040000BDE8F08D00204FF48011064684460EE0D2
:10041000171B73EB050705D3121B63EB050306439C
:100420004CEA010C49084FEA300092185B4150EA4F
:100430000107EDD152EA030012D082EA040083EAF8
:100440000501084305D0101BAB4106D20122002351
:1004500006E000224FF0004302E06FF0010253106B
:100460001AEB06004CEB085110EB0A0041EB0B01B4
:10047000BDE8F04D00F0E0B8C10F80EAE07008443C
:10048000CA079623002100F0A9B870B5C1F30A523B
:1004900001F000450024C1F3130140F2FF3341F4A1
:1004A00080119A4201DA002070BD40F233439A4233
:1004B000A2F2334203DC5242FFF734FE00E09040E8
:1004C0002C43F1D0404270BD00F0004230F00040BB
:1004D0000AD0C10D01F56071C0F3160042EA015166
:1004E000C20840071143704700200146704701F0E1
:1004F000004330B421F0004150EA010206D00A0D59
:10050000A2F56072C1F31301002A02DC30BC0020A6
:100510007047440F44EAC104C100E01830BC00EB4E
:10052000C25000F052B82DE9F05F05460020924617
:100530009B4688460646814640241BE028464146A5
:1005400047462246FFF7EEFD53465A46C01A9141F0
:1005500010D311461846224600F016F82D1A67EB04
:1005600001084F4622460120002100F00DF817EB4C
:1005700000094E41201EA4F10104DFDC484631464B
:100580002A464346BDE8F09F202A04DB203A00FAC1
:1005900002F1002070479140C2F1200320FA03F3DA
:1005A000194390407047202A06DBCB17203A41FAC6
:1005B00002F043EAE07306E041FA02F3D040C2F1F0
:1005C000200291400843194670470029A8BF704790
:1005D000401C490008BF20F00100704710B4B0FA79
:1005E00080FC00FA0CF050EA010404BF10BC704714
:1005F00049B1CCF1200421FA04F411FA0CF118BF2E
:10060000012121430843A3EB0C01CB1D4FEA0061FC
:100610004FEA102042BF002010BC704700EBC350CF
:1006200010440029A4BF10BC7047401C490008BFFB
:1006300020F0010010BC704710B5141E73F10004C7
:1006400008DA401C41F1000192185B411A4301D1C4
:1006500020F0010010BD2DE9F04D92469B4611B1EE
:10066000B1FA81F202E0B0FA80F220329046FFF750
:100670008BFF04460F4640EA0A0041EA0B0153464D
:100680005A46084313D0114653EA010019D0C8F165
:1006900040025046FFF746FD05460E465046594675
:1006A0004246FFF771FF084305D0012004E02046D1
:1006B0003946BDE8F08D0020054346EAE0762C433C
:1006C00037430A986305E40AA0EB08000022FD0AFC
:1006D00044EA47540A3002D500200146E9E7010503
:1006E00010196941DDE9084500196941BDE8F04D7F
:1006F000A2E770B521F0004303430CD0C1F30A55C3
:100700000024D5EB040564EB0403D617AD1AB341FE
:1007100002DB0020014670BD201841EB025170BD84
:100720002DE9F04D00231A461B1A8A4103DB0020F5
:100730000146BDE8F08DC1F30A52C1F3130141F443
:1007400080154FF0000BD10702D100186D41521EE9
:100750000027044640F2FF11384601EB620A3E468C
:100760008046024600204FF48011FFF7DBFCC219DF
:100770007141BB1846EB0100B4EB030C75EB000CA8
:1007800004D3E41A65EB000517460E46241908F158
:1007900001006D4180463428E3DDF91946EB06007F
:1007A000091BA84103D24FF0FF32134601E000229B
:1007B00013461BEB070046EB0A51BDE8F04DFFF76F
:1007C0003BBF0EB5C10F80EAE0700844CA070021A4
:1007D00040F233438DE80E000A460B46FFF73BFF1D
:1007E00003B000BD30B5041E71F1000404DB4FF00E
:1007F0000044404264EB0101141E73F1000405DB68
:100800001C464FF00043524263EB0403994208BF79
:10081000904230BD064C074D06E0E06840F0010311
:1008200094E8070098471034AC42F6D3FFF762FC17
:10083000304400085044000800BFFEE7704770478E
:1008400070B5044600F0A6F906462546681C10B1AE
:1008500004480078054400BF00F09CF9801BA842C2
:10086000FAD370BD180000202DE9F8470346002296
:1008700094466EE14FF0010808FA02F4D1F80080C6
:1008800008EA0400A0427DD1DFF8DCA2D1F80480A0
:10089000A8EB0A09D0453AD014DCB8F1030F50D0C8
:1008A00009DCB8F1000F31D0B8F1010F1CD0B8F15C
:1008B000020F49D120E0B8F1110F18D0B8F1120F92
:1008C00042D11EE0B9F5881F25D006DCB9F5803F7E
:1008D00020D0B9F5801F37D11AE0B9F5001F18D024
:1008E000B9F5041F30D117E0D1F80CC02DE0D1F8D4
:1008F0000C8008F1040C28E0D1F80C8008F1080CF9
:1009000023E0D1F80C8008F10C0C1EE000BF00BF02
:1009100000BF00BF00BF00BFD1F80880B8F1000FD2
:1009200002D14FF0040C0BE0D1F80880B8F1010FB0
:1009300003D14FF0080C1C6102E04FF0080C5C6121
:1009400003E04FF0000C00E000BF00BFFF2801D81B
:10095000984601E003F104084646FF2802D84FEA12
:10096000820803E0A2F108084FEA88084746D6F853
:1009700000804FF00F0909FA07F928EA09080CFA74
:1009800007F900E088E048EA0908C6F80080D1F8D5
:10099000048008F08058B8F1805F7DD100BFDFF897
:1009A000CC81D8F8188048F00108DFF8C091C9F868
:1009B0001880C846D8F8188008F00108CDF80080E3
:1009C00000BF00BF4FEAB9384FEA920958F82950E2
:1009D0004FEA82784FEA18794FF00F0808FA09F8C1
:1009E00025EA0805DFF88881434502D14FF0000869
:1009F00016E0DFF88081434502D14FF001080FE097
:100A0000DFF87481434502D14FF0020808E0DFF8B7
:100A10006C81434502D14FF0030801E04FF0040818
:100A20004FEA82794FEA197908FA09F848EA050588
:100A3000DFF84C814FEA920948F82950D1F8048038
:100A400008F48038B8F5803F0AD1DFF83881D8F84B
:100A5000008048EA0008DFF82C91C9F8008009E01E
:100A6000DFF82081D8F8008028EA0008DFF8149128
:100A7000C9F80080D1F8048008F40038B8F5003FC8
:100A800010D1DFF8008108F10408D8F8008048EAA6
:100A90000008DFF8F09000E05AE009F10409C9F815
:100AA00000800DE0DFF8DC8008F10408D8F8008051
:100AB00028EA0008DFF8CC9009F10409C9F80080A1
:100AC000D1F8048008F48018B8F5801F0ED1DFF843
:100AD000B48008F10808D8F8008048EA0008DFF878
:100AE000A49009F10809C9F800800DE0DFF89480AE
:100AF00008F10808D8F8008028EA0008DFF8849098
:100B000009F10809C9F80080D1F8048008F4001838
:100B1000B8F5001F0ED1DFF86C8008F10C08D8F88A
:100B2000008048EA0008DFF85C9009F10C09C9F878
:100B300000800DE0DFF84C8008F10C08D8F8008048
:100B400028EA0008DFF83C9009F10C09C9F8008098
:100B5000521CD1F8008028FA02F8B8F1000F7FF497
:100B600089AEBDE8F88700000000111000100240B7
:100B700000080140000C0140001001400014014039
:100B800008000140000401400AB1016101E00B04CA
:100B900003617047014800687047000010000020A2
:100BA00070B504460CB9012070BD94F83D0028B919
:100BB000002084F83C00204600F008FB242084F844
:100BC0003D002068006820F001002168086000F006
:100BD00003FD05465C496068884206D85B4885424B
:100BE00001D2012007E0002005E05948854201D2EA
:100BF000012000E00020012800D1D5E75548B5FBD1
:100C0000F0F62068406820F03F00304321684860DB
:100C10004D496068884201D8701C07E04FF4967017
:100C200070434FF47A71B0FBF1F0401C2168096AFF
:100C300021F03F0108432168086243496068884207
:100C400014D8681E61684900B0FBF1F0401CC0F385
:100C50000B00042801D204203DE0681E61684900B1
:100C6000B0FBF1F0401CC0F30B0034E0A06838B9D1
:100C7000681E616801EB4101B0FBF1F0401C0AE025
:100C8000681E616801EBC10202EB0111B0FBF1F0DB
:100C9000401C40F48040C0F30B0008B901201AE06A
:100CA000A06848B9681E616801EB4101B0FBF1F032
:100CB000401CC0F30B000CE0681E616801EBC10230
:100CC00002EB0111B0FBF1F0401CC0F30B0040F44B
:100CD000804040F400402168C9694CF6FF7291439E
:100CE00008432168C861D4E90701084321680968FD
:100CF00021F0C001084321680860D4E903100843CB
:100D00002168896848F2FF3291430843216888606E
:100D1000D4E9050108432168C96821F0FF010843AF
:100D20002168C8602068006840F001002168086000
:100D300000202064202084F83D000020206384F8F7
:100D40003E0000BF30E70000A086010080841E0046
:100D500000093D0040420F002DE9FC5F04460F46AC
:100D600090469946DDE90CAB0E9EFFF713FF054652
:100D700094F83D00202872D119230122B74920465A
:100D8000009501F071FC10B10220BDE8FC9F00BF8E
:100D900094F83C00012801D10220F6E7012084F8F4
:100DA0003C0000BF2068006800F0010028B92068FE
:100DB000006840F00100216808602068006820F4A5
:100DC000006021680860222084F83D00402084F8FB
:100DD0003E0000202064C4F824A0A4F82AB0608D4E
:100DE00020859F48E0624B46424639462046CDE981
:100DF000006501F009FB08B10120C6E7208D88B924
:100E000000BF00200190206840690190206880693F
:100E1000019000BF00BF2068006840F400702168A6
:100E200008604BE0208D01281AD12068006820F46A
:100E300080602168086072B600BF002001902068C1
:100E40004069019020688069019000BF00BF206860
:100E5000006840F400702168086062B62EE0FBE094
:100E6000208D022819D12068006840F400602168B4
:100E7000086072B600BF00200190206840690190B0
:100E800020688069019000BF00BF2068006820F4DE
:100E900080602168086062B610E02068006840F455
:100EA00080602168086000BF0020019020684069D0
:100EB000019020688069019000BF00BFBDE0208DD7
:100EC000032870D8208D012815D12A4631462046A6
:100ED00001F06FFC08B1012057E720680069616AE2
:100EE0000870606A401C6062208D401E2085608D05
:100EF000401E6085A1E0208D02282CD133460022BF
:100F000058492046009501F0AFFB08B101203CE7AD
:100F100072B62068006840F400702168086020689C
:100F20000069616A0870606A401C6062208D401E22
:100F30002085608D401E608562B620680069616A08
:100F40000870606A401C6062208D401E2085608DA4
:100F5000401E608571E033460022424920460095DC
:100F600001F082FB08B101200FE72068006820F43F
:100F700080602168086072B620680069616A087044
:100F8000606A401C6062208D401E2085608D401E7E
:100F900060853346002233492046009501F064FB0A
:100FA00010B10120F1E621E02068006840F40070F3
:100FB0002168086020680069616A0870606A401CE6
:100FC0006062208D401E2085608D401E608562B667
:100FD00020680069616A0870606A401C6062208D48
:100FE000401E2085608D401E608526E02A463146E1
:100FF000204601F0DEFB08B10120C6E6206800694A
:10100000616A0870606A401C6062208D401E208505
:10101000608D401E608520684069C0F3800060B12B
:1010200020680069616A0870606A401C6062208DF7
:10103000401E2085608D401E6085208D00287FF435
:101040003EAF202084F83D00002084F83E0000BF21
:1010500084F83C0000BF98E6022096E602001000EB
:101060000000FFFF040001002DE9FC5F04460F466D
:1010700090469946DDE90CAB0E9EFFF78BFD0546C9
:1010800094F83D0020287DD1192301224D492046A6
:10109000009501F0E9FA10B10220BDE8FC9F00BF05
:1010A00094F83C00012801D10220F6E7012084F8E1
:1010B0003C0000BF2068006800F0010028B92068EB
:1010C000006840F00100216808602068006820F492
:1010D000006021680860212084F83D00402084F8E9
:1010E0003E0000202064C4F824A0A4F82AB0608D3B
:1010F00020853548E0624B46424639462046CDE9D8
:10110000006501F01DFA08B10120C6E731E02A466A
:101110003146204601F08DFB50B1206C042805D1EA
:101120002068006840F40070216808600120B4E77E
:10113000606A007821680861606A401C6062208DE6
:10114000401E2085608D401E608520684069C0F388
:10115000800070B1208D60B1606A007821680861FC
:10116000606A401C6062208D401E2085608D401E9C
:101170006085208D0028CAD12A463146204601F0DC
:1011800045FA00E01CE050B1206C042805D120682D
:10119000006840F400702168086001207DE7206845
:1011A000006840F4007021680860202084F83D0049
:1011B000002084F83E0000BF84F83C0000BF6CE7CC
:1011C00002206AE7020010000000FFFF10B586B0A1
:1011D0000446002002900390049005902B4920685B
:1011E000884225D100BF2A48806940F0080028497C
:1011F00088610846806900F00800019000BF00BFC8
:10120000C0200290122003900320059002A92148DB
:10121000FFF72AFB00BF1E48C06940F400101C49BC
:10122000C8610846C06900F40010019000BF2AE0C0
:1012300019492068884226D100BF1548806940F0CE
:101240000800134988610846806900F00800019091
:1012500000BF00BF4FF440600290122003900320B3
:10126000059002A90B48FFF7FFFA00BF0848C069C4
:1012700040F480000649C8610846C06900F4800057
:10128000019000BF00BF06B010BD00000054004038
:1012900000100240000C0140005800400348006864
:1012A000034909780844014908607047100000208C
:1012B0001800002010B50848006840F010000649EA
:1012C0000860032000F0A8F8002000F007F800F004
:1012D0002BF8002010BD00000020024070B504462D
:1012E0000E4800784FF47A71B1FBF0F00C490968B0
:1012F000B1FBF0F5284600F00BFC08B1012070BDF1
:10130000102C07D200222146501E00F047F8054855
:10131000046001E00120F2E70020F0E7180000205F
:101320001C0000201400002008B500BF114880698F
:1013300040F001000F4988610846806900F0010013
:10134000009000BF00BF00BF0846C06940F0805059
:10135000C8610846C06900F08050009000BF00BF1F
:1013600000BF0549486820F0E06040F00070486028
:1013700000BF08BD001002400000014001460846C1
:10138000002809DB00F01F0301229A4043099B005B
:1013900003F1E023C3F8002100BF70472DE9F05F9F
:1013A00080460D461646002701F080FD0746394667
:1013B0002A46334601F00700C0F1070ABAF1040FCC
:1013C00002D94FF0040A01E0C0F1070AD14600F14A
:1013D000040ABAF1070F02D24FF0000A01E0A0F1AF
:1013E000030AD4464FF0010A0AFA09FAAAF1010ADF
:1013F0000AEA020A0AFA0CFA4FF0010B0BFA0CFB8C
:10140000ABF1010B0BEA030B4AEA0B042146404601
:1014100001F054FDBDE8F09F00BF00F00702064B4D
:1014200019684FF6FF031940044B0B4343EA0221AE
:10143000014B196000BF70470CED00E00000FA0599
:1014400070B504460D460CB9012070BD5A480068BD
:1014500000F00700A8420ED25748006820F00700AD
:101460002843554908600846006800F00700A84274
:1014700001D00120E9E7207800F0020002281DD108
:10148000207800F00400042805D14C48406840F45E
:10149000E0604A494860207800F00800082805D13B
:1014A0004648406840F460504449486043484068BA
:1014B00020F0F000A168084340494860207800F01F
:1014C000010078B36068012806D13C48006800F448
:1014D000003090B90120B8E76068022806D137488B
:1014E000006800F0007040B90120AEE733480068A2
:1014F00000F0020008B90120A7E73048406820F05A
:101500000300616808432D494860FFF743FB064626
:1015100009E0FFF73FFB801B41F28831884202D986
:10152000032092E707E02548406800F00C0061685E
:10153000B0EB810FEDD12048006800F00700A84211
:101540000ED91D48006820F0070028431A4908609A
:101550000846006800F00700A84201D0012074E7A7
:10156000207800F00400042807D11448406820F4D3
:10157000E060E168084311494860207800F0080005
:10158000082808D10D48406820F46050216940EADD
:10159000C1000A49486000F03FF808494968C1F3B2
:1015A0000311074A515CC8400649086006480068B4
:1015B000FFF794FE002048E70020024000100240A0
:1015C000F04200081C0000201400002001480068C0
:1015D000704700001C00002000B5FFF7F7FF04492A
:1015E0004968C1F30221034A515CC84000BD0000B4
:1015F000001002400043000800B5FFF7E7FF044970
:101600004968C1F3C221034A515CC84000BD0000D3
:101610000010024000430008F0B585B00FF26C0CDA
:101620009CE8E01001A8A0E8E0101CA52D6800953A
:1016300000210022002300240020194D696801F0D8
:101640000C05F5B1042D02D0082D19D101E0154883
:1016500019E001ADC1F38346AC5D01F4803555B1AD
:101660000F4D6D68C5F340451DF805200D4D6543D0
:10167000B5FBF2F302E00C4D04FB05F3184602E063
:1016800000BF084800BF00BF05B0F0BD020304055D
:10169000060708090A0B0C0D0E0F101001020000BE
:1016A0000010024000127A0000093D00F8B504461F
:1016B0000CB90120F8BD207800F00100002878D096
:1016C000F848406800F00C0004280CD0F548406849
:1016D00000F00C00082811D1F248406800F4803076
:1016E000B0F5803F0AD1EF48006800F400300028D0
:1016F0005FD0606800285CD10120DBE700BF606834
:10170000B0F5803F06D1E748006840F48030E549F5
:10171000086028E0606858B9E248006820F480302A
:10172000E04908600846006820F4802008601AE05C
:101730006068B0F5A02F0BD1DA48006840F4802033
:10174000D84908600846006840F4803008600AE024
:10175000D448006820F48030D24908600846006808
:1017600020F48020086000BF606888B1FFF712FA9B
:10177000054606E0FFF70EFA401B642801D9032056
:1017800098E7C848006800F400300028F2D010E064
:10179000FFF700FA054606E0FFF7FCF9401B642856
:1017A00001D9032086E7BF48006800F40030002814
:1017B000F2D1207800F00200022857D1B9484068E1
:1017C00000F00C0050B1B748406800F00C00082849
:1017D00018D1B448406800F4803098B9B148006826
:1017E00000F0020020B12069012801D0012061E74A
:1017F000AC48006820F0F800616940EAC100A949DE
:10180000086033E02069E8B10120A7490860FFF7CC
:10181000C1F9054606E0FFF7BDF9401B022801D9D2
:10182000032047E79F48006800F002000028F2D03C
:101830009C48006820F0F800616940EAC1009949BD
:10184000086013E0002098490860FFF7A3F90546F7
:1018500006E0FFF79FF9401B022801D9032029E782
:101860009048006800F002000028F2D1207800F0D3
:10187000080008282DD1A069B8B101208B49086063
:10188000FFF788F9054606E0FFF784F9401B0228B8
:1018900001D903200EE78348406A00F002000028C7
:1018A000F2D0012001F0DCF813E000207F4908604D
:1018B000FFF770F9054606E0FFF76CF9401B0228B8
:1018C00001D90320F6E67748406A00F002000028BC
:1018D000F2D1207800F00400042873D10027714869
:1018E000C06900F0805070B900BF6E48C06940F018
:1018F00080506C49C8610846C06900F08050009073
:1019000000BF00BF01276A48006800F48070B0B9CA
:101910006748006840F4807065490860FFF73AF94D
:10192000054606E0FFF736F9401B642801D903207D
:10193000C0E65F48006800F480700028F2D000BF65
:10194000E068012806D15748006A40F00100554977
:10195000086227E0E06858B95248006A20F00100A8
:10196000504908620846006A20F00400086219E045
:10197000E06805280BD14B48006A40F00400494953
:1019800008620846006A40F0010008620AE0454823
:10199000006A20F00100434908620846006A20F00E
:1019A0000400086200BFE068A0B1FFF7F3F8054645
:1019B00009E0FFF7EFF8401B41F28831884202D975
:1019C000032077E622E03748006A00F00200002892
:1019D000EFD012E0FFF7DEF8054608E0FFF7DAF88F
:1019E000401B41F28831884201D9032062E62D482C
:1019F000006A00F002000028F0D1012F05D129482B
:101A0000C06920F080502749C86100BFE069C8B3B1
:101A10002448406800F00C00082860D0E0690228E3
:101A200048D1002020490866FFF7B4F8054606E0D3
:101A3000FFF7B0F8401B022801D903203AE6194805
:101A4000006800F000700028F2D1206AB0F5803FF5
:101A500007D11448406820F40030A16808431149B8
:101A60004860D4E9080108430E49496821F474111B
:101A700008430C49486001200B490866FFF78AF8C3
:101A8000054607E03DE0FFF785F8401B022801D935
:101A900003200FE60348006800F000700028F2D031
:101AA0002FE0000000100240000042428004424249
:101AB00000700040002014490866FFF76BF80546E7
:101AC00006E0FFF767F8401B022801D90320F1E583
:101AD0000E48006800F000700028F2D111E0E069C3
:101AE000012800D1E6E50948466806F48031206AFD
:101AF000814204D106F47011606A814201D0012054
:101B0000D8E50020D6E50000000042420010024067
:101B100070B504462546681EB0F1807F01D30120D0
:101B20000FE0681E4FF0E02148610F214FF0FF30B9
:101B300001F0C4F900204FF0E0218861072008611E
:101B4000002070BD7047704710B5024600BF92F884
:101B50003C00012801D1022010BD012082F83C0088
:101B600000BF022082F83D00106843681068846856
:101B700023F070030868034324F08004486804439A
:101B80001068436010688460012082F83D0000BF47
:101B9000002082F83C0000BF00BFDDE710B504461E
:101BA0000CB9012010BD94F83D0028B9002084F83C
:101BB0003C00204600F00CF8022084F83D00211D76
:101BC000206800F0CDFF012084F83D000020E9E707
:101BD00038B504462068B0F1804F15D100BF0B48DE
:101BE000C06940F001000949C8610846C06900F0B9
:101BF0000100009000BF00BF002211461C20FFF72B
:101C0000CDFB1C20FFF7BAFB38BD000000100240DE
:101C10002DE9F04104460D4600BF94F83C00012830
:101C200002D10220BDE8F081012084F83C0000BF11
:101C3000022084F83D002068866826F0770626F4A6
:101C40007F46206886602868502833D00CDC202826
:101C500050D004DC00284BD0102851D149E0302866
:101C600049D040284CD139E060282DD0702807D0C9
:101C7000B0F5805F03D0B0F5005F41D10DE040E0EA
:101C8000D5E902136A68206800F0A4FF206886681E
:101C900046F077062068866033E0D5E902136A686B
:101CA000206800F097FF2068806840F48040216839
:101CB000886026E0EA686968206800F09FFF50218C
:101CC000206800F092FF1CE0EA686968206800F074
:101CD000A8FF6021206800F088FF12E0EA686968C8
:101CE000206800F08BFF4021206800F07EFF08E0B4
:101CF00000BF00BF00BF2968206800F076FF00E049
:101D000000BF00BF012084F83D0000BF002084F820
:101D10003C0000BF00BF85E7704710B5044620684F
:101D20000069C0F34000D8B12068C068C0F340002B
:101D3000B0B16FF0020021680861012020772068AF
:101D4000806900F0030018B12046FFF7E5FF05E0C9
:101D5000204600F0ADF8204600F0ABF800202077D8
:101D600020680069C0F38000D8B12068C068C0F363
:101D70008000B0B16FF00400216808610220207774
:101D80002068806900F4407018B12046FFF7C4FF56
:101D900005E0204600F08CF8204600F08AF800208C
:101DA000207720680069C0F3C000D8B12068C068FF
:101DB000C0F3C000B0B16FF00800216808610420D2
:101DC00020772068C06900F0030018B12046FFF7B3
:101DD000A3FF05E0204600F06BF8204600F069F80C
:101DE0000020207720680069C0F30010D8B1206877
:101DF000C068C0F30010B0B16FF010002168086136
:101E0000082020772068C06900F4407018B120468F
:101E1000FFF782FF05E0204600F04AF8204600F078
:101E200048F8002020772068006900F0010058B1D0
:101E30002068C06800F0010030B16FF00100216837
:101E40000861204600F036F820680069C0F3C01031
:101E500058B12068C068C0F3C01030B16FF0800086
:101E6000216808612046FFF76DFE20680069C0F315
:101E7000801058B12068C068C0F3801030B16FF096
:101E8000400021680861204600F015F820680069CC
:101E9000C0F3401058B12068C068C0F3401030B1A2
:101EA0006FF02000216808612046FFF74CFE10BD4E
:101EB000704770477047704710B504460CB9012051
:101EC00010BDA06900B100E000BF94F8390028B946
:101ED000002084F83800204600F028F8242084F8F8
:101EE00039002068C06820F400502168C86020468E
:101EF00000F0ACFE2068006920F490402168086181
:101F00002068406920F02A00216848612068C06884
:101F100040F400502168C8600020E063202084F86D
:101F2000390084F83A000020CAE7000010B586B0F6
:101F30000446002002900390049005901A492068FE
:101F400088422ED100BF1948806940F4804017496B
:101F500088610846806900F48040019000BF00BF9E
:101F600000BF0846806940F0040088610846806927
:101F700000F00400019000BF00BF4815029002204D
:101F800003900320059002A90948FEF76DFC4FF469
:101F90008060029000200390049002A90448FEF79C
:101FA00063FC06B010BD0000003801400010024084
:101FB000000801402DE9F84304460D4616461F4629
:101FC0004FF0000994F8390020285CD105B116B90A
:101FD0000120BDE8F88300BF94F83800012801D142
:101FE0000220F6E7012084F8380000BF0020E063FB
:101FF000212084F83900FEF7CDFD8146A684E684D1
:102000002BE0E08C401EE084A068B0F5805F16D124
:102010004B46002280212046009700F0E7FE08B1E1
:102020000320D6E7A846B8F80000C0F308002168EE
:102030004860206908B9AD1C0FE06D1C0DE04B46EF
:10204000002280212046009700F0D0FE08B1032036
:10205000BFE715F8010B21684860E08C0028D0D15B
:102060004B46002240212046009700F0BFFE08B1F9
:102070000320AEE7202084F8390000BF002084F858
:10208000380000BFA5E70220A3E700BFFEE700007D
:1020900070B58CB00026242103A8FEF75AF823253A
:1020A000002443A103A800F0D9FE23264FF6FF73B6
:1020B000324603A94448FFF77DFF4FF4FA70FEF75C
:1020C000BFFB0020414908703AE00120FEF7B8FB51
:1020D0003F4800683F4909883F4ACDE90021029006
:1020E0003A48007841003B4803883C4802783C4825
:1020F000FEF732FE3B49088008460088D8B9002424
:1021000004E0002003A90855601CC4B2AC42F8DB0F
:102110002E48027834A103A800F0A0FE23264FF633
:10212000FF73324603A92848FFF744FF364800787A
:10213000401C3549087025480078401C2349087028
:1021400022480078FF28C0DB2F480078A0B900247F
:1021500004E0002003A90855601CC4B2AC42F8DBBF
:102160002AA103A800F07AFE23264FF6FF73324619
:1021700003A91548FFF71EFF4FF4FA70FEF760FB46
:10218000002404E0002003A90855601CC4B2AC423E
:10219000F8DB24A103A800F061FE23264FF6FF73AD
:1021A000324603A90848FFF705FF0CB070BD0000D8
:1021B00053454152434820444556495345532E2EDA
:1021C0002E200D0A000000007001002000000020F9
:1021D0000800002002000020040000200100002070
:1021E000880000200C00002044657669636520614A
:1021F0006464726573732D30782578202D20666FA6
:10220000756E64200D0A00000E000020446576699A
:10221000636573206E6F20666F756E642121210DDA
:102220000A000000444F4E450D0A000070B58CB006
:102230000026242103A8FDF78CFF2325002443A1B9
:1022400003A800F00BFE23264FF6FF73324603A9C6
:102250004448FFF7AFFE4FF4FA70FEF7F1FA0020A2
:10226000414908703AE00120FEF7EAFA3F48006869
:102270003F4909883F4ACDE9002102903A48007859
:1022800041003B4803883C4802783C48FEF764FD27
:102290003B49088008460088D8B9002404E00020A3
:1022A00003A90855601CC4B2AC42F8DB2E48027882
:1022B00034A103A800F0D2FD23264FF6FF73324667
:1022C00003A92848FFF776FE36480078401C3549B8
:1022D000087025480078401C23490870224800787F
:1022E000FF28C0DB2F480078A0B9002404E00020BC
:1022F00003A90855601CC4B2AC42F8DB2AA103A8AC
:1023000000F0ACFD23264FF6FF73324603A91548B3
:10231000FFF750FE4FF4FA70FEF792FA002404E043
:10232000002003A90855601CC4B2AC42F8DB24A10C
:1023300003A800F093FD23264FF6FF73324603A94E
:102340000848FFF737FE0CB070BD000053454152FE
:10235000434820444556495345532E2E2E200D0AFE
:102360000000000070010020000000200800002094
:10237000020000200400002001000020DC000020FA
:102380000C000020446576696365206164647265B1
:1023900073732D30782578202D20666F756E64203C
:1023A0000D0A00000E000020446576696365732005
:1023B0006E6F20666F756E642121210D0A0000008A
:1023C000444F4E450D0A0000014608684069C0F3BD
:1023D0008020B0B16FF480600A685061002008630B
:1023E000202081F83D00002081F83E00086C40F07C
:1023F0000400086400BF002081F83C0000BF0120F9
:1024000070470020FCE700002DE9F84304460F4622
:1024100015469946DDE908862068006840F480602A
:10242000216808602068006840F4807021680860B6
:10243000434600224FF001112046009600F014F9A7
:1024400010B10120BDE8F88307F0FE0021680861A3
:10245000334642463949204600F049F908B1012087
:10246000F0E700BF002000902068406900902068DD
:102470008069009000BF00BF32464146204600F010
:10248000D8F950B1206C042805D12068006840F4C8
:102490000070216808600120D4E7B9F1010F03D171
:1024A000E8B22168086117E0C5F3072021680861D8
:1024B00032464146204600F0BCF950B1206C042859
:1024C00005D12068006840F4007021680860012090
:1024D000B8E7E8B22168086132464146204600F07C
:1024E000A8F950B1206C042805D12068006840F498
:1024F0000070216808600120A4E72068006840F4AB
:10250000807021680860434600224FF00111204688
:10251000009600F0A9F808B1012093E7F8B240F066
:10252000010021680861334642460449204600F014
:10253000DEF808B1012085E7002083E702000100F2
:102540002DE9F8430446884615469946DDE90867B3
:102550002068006840F480702168086033460022DB
:102560004FF001112046009700F07EF810B10120D5
:10257000BDE8F88308F0FE00216808613B4632465A
:102580002149204600F0B3F808B10120F0E700BF70
:1025900000200090206840690090206880690090C9
:1025A00000BF00BF3A463146204600F042F950B124
:1025B000206C042805D12068006840F40070216870
:1025C00008600120D4E7B9F1010F03D1E8B2216816
:1025D000086117E0C5F30720216808613A463146D3
:1025E000204600F026F950B1206C042805D120685F
:1025F000006840F40070216808600120B8E7E8B284
:10260000216808610020B3E70200010070B50446AC
:102610000D46164620E02046FFF7D6FE08B1012001
:1026200070BD681CC0B1FEF7B5FA801BA84200D887
:1026300095B900202063202084F83D00002084F814
:102640003E00206C40F02000206400BF002084F891
:102650003C0000BF0120E3E720684069C0F3800030
:102660000028D8D00020DBE72DE9F04104460D46D4
:1026700017461E46DDF818801CE0701CD0B1FEF72E
:1026800089FAA0EB0800B04200D89EB90020206370
:10269000202084F83D00002084F83E00206C40F0AB
:1026A0002000206400BF002084F83C0000BF01200F
:1026B000BDE8F081C5F3074001280AD120684069D0
:1026C000A9B20840A9B2884201D101200BE0002044
:1026D00009E020688069A9B20840A9B2884201D106
:1026E000012000E00020B842C7D00020E0E72DE93B
:1026F000F04104460D4616461F463DE020684069FD
:10270000C0F38020E8B12068006840F400702168C0
:1027100008606FF4806021684861002020632020F9
:1027200084F83D00002084F83E00206C40F0040056
:10273000206400BF002084F83C0000BF0120BDE8F9
:10274000F081701CC0B1FEF725FAC01BB04200D862
:1027500096B900202063202084F83D00002084F8F2
:102760003E00206C40F02000206400BF002084F870
:102770003C0000BF0120E2E7C5F3074001280AD171
:1027800020684069A9B20840A9B2884201D101205D
:102790000BE0002009E020688069A9B20840A9B2D6
:1027A000884201D1012000E000200028A6D00020AE
:1027B000C5E770B504460D46164632E0206840690C
:1027C000C0F30010A0B16FF0100021684861002034
:1027D0002063202084F83D00002084F83E00206C17
:1027E000206400BF002084F83C0000BF012070BDC1
:1027F000FEF7D0F9801BA84200D895B900202063CD
:10280000202084F83D00002084F83E00206C40F039
:102810002000206400BF002084F83C0000BF01209D
:10282000E5E720684069C0F380100028C6D000208A
:10283000DDE770B504460D46164620E02046FFF75A
:10284000C3FD08B1012070BD681CC0B1FEF7A2F93C
:10285000801BA84200D895B900202063202084F86E
:102860003D00002084F83E00206C40F020002064F1
:1028700000BF002084F83C0000BF0120E3E720688F
:102880004069C0F3C0100028D8D00020DBE700006A
:1028900000B585B00020019002900390049000BF25
:1028A0002448806940F01000224988610846806908
:1028B00000F01000009000BF00BF00BF0846806914
:1028C00040F0200088610846806900F020000090F8
:1028D00000BF00BF00BF0846806940F00800886163
:1028E0000846806900F00800009000BF00BF00BFEC
:1028F0000846806940F0040088610846806900F05D
:102900000400009000BF00BF00224FF400510A48AD
:10291000FEF73AF94FF40050019001200290002098
:1029200003900220049001A90348FDF79DFF05B024
:1029300000BD0000001002400010014010B50B481F
:102940000B4908600B484860002109488160C1605C
:102950004FF480410161002141618161C1610162E7
:10296000FEF71EF908B1FDF76AFF10BD00540040E4
:1029700088000020A086010010B50B480B490860B4
:102980000B484860002109488160C1604FF48041D4
:102990000161002141618161C1610162FEF700F9BD
:1029A00008B1FDF74CFF10BD00580040DC000020CE
:1029B000A086010000B587B0002003900490059028
:1029C0000690019002904FF080401449086048F64C
:1029D000A0404860002111488160C821C1600021E9
:1029E00001618161FFF7DAF808B1FDF728FF4FF4C4
:1029F0008050039003A90948FFF70AF908B1FDF7D1
:102A00001EFF00200190029001A90448FFF79CF8E6
:102A100008B1FDF714FF07B000BD00003001002031
:102A200010B50B480B4908604FF4E13048600021B5
:102A300008488160C16001610C2141610021816110
:102A4000C161FFF739FA08B1FDF7F9FE10BD0000CA
:102A5000003801407001002000BFFEE7704770475A
:102A600008B508490968C9084FF47A72B1FBF2F158
:102A70004143009100BF00BF00994A1E0092002907
:102A8000F9D108BD1C000020704710B5FEF706FC08
:102A900010BD00B58FB0282105A8FDF75AFB142101
:102AA0006846FDF756FB01200590000406900020C3
:102AB00007900120099002200C90C1030D914FF462
:102AC000E0110E9105A8FEF7F1FD08B1FDF7B7FE84
:102AD0000F20009002200190002002904FF48060AF
:102AE00003900020049002216846FEF7A9FC08B17B
:102AF000FDF7A5FE0FB000BD1148006840F00100D1
:102B00000F490860084640680E4908400C49486073
:102B1000084600680C4908400949086008460068F2
:102B200020F4802008600846406820F4FE004860D9
:102B30004FF41F008860C803044908607047000014
:102B4000001002400000FFF8FFFFF6FE08ED00E075
:102B500010B50248FFF7E1F810BD00003001002079
:102B600010B50268184B984208D0B0F1804F05D0DC
:102B7000164B984202D0164B984203D122F07002B5
:102B80004B681A43104B984208D0B0F1804F05D0E3
:102B90000E4B984202D00E4B984203D122F4407261
:102BA000CB681A4322F080034C6943EA04020260B6
:102BB0008B68C3620B688362034B984201D10B6937
:102BC00003630123436110BD002C01400004004059
:102BD0000008004030B50C46816821F47F4142EA8C
:102BE000032525432943816030BD0A46816821F0D1
:102BF000700142F0070319438160704730B50B46FE
:102C00001446026A056A25F001050562816921F012
:102C1000F00141EA041122F00A021A4381610262C2
:102C200030BD30B50B461446056A25F01005056227
:102C30008169026A21F4704141EA043122F0A00264
:102C400042EA03128161026230BD000070B50446A1
:102C50002168096921F44051E26811432268116139
:102C60002269A1681143626941EA02052168C968C5
:102C700041F20C62914329432268D160216849697D
:102C800021F44071A269114322685161564A2168BA
:102C9000914254D1FEF7B0FC00EBC00101EB0011F2
:102CA00062689200B1FBF2F100EBC00202EB00128D
:102CB00063689B00B2FBF3F26423B2FBF3F202EB16
:102CC000C20303EB0212A1EB8201322202EB0111DB
:102CD0006422B1FBF2F101F0F00100EBC00202EB63
:102CE000001263689B00B2FBF3F26423B2FBF3F2C1
:102CF00001EB021200EBC00101EB001163689B00C5
:102D0000B1FBF3F100EBC00303EB00136668B60000
:102D1000B3FBF6F36426B3FBF6F303EBC30606EB53
:102D20000313A1EB8301322303EB01116423B1FBF5
:102D3000F3F101F00F0111442268916053E0FEF7B6
:102D40004BFC00EBC00101EB001162689200B1FB8B
:102D5000F2F100EBC00202EB001263689B00B2FBD1
:102D6000F3F26423B2FBF3F202EBC20303EB0212B1
:102D7000A1EB8201322202EB01116422B1FBF2F1DC
:102D800001F0F00100EBC00202EB001263689B004F
:102D9000B2FBF3F26423B2FBF3F201EB021200EB9D
:102DA000C00101EB001163689B00B1FBF3F100EB84
:102DB000C00303EB00136668B600B3FBF6F36426AA
:102DC000B3FBF6F303EBC30606EB0313A1EB83019E
:102DD000322303EB01116423B1FBF3F101F00F0186
:102DE00011442268916070BD003801402DE9F04126
:102DF00004460D4617469846069E21E0701CF8B121
:102E00002EB1FDF7C7FEA0EB0800B04218D920682C
:102E1000C06820F4D0702168C8602068406920F044
:102E2000010021684861202084F8390084F83A00C4
:102E300000BF002084F8380000BF0320BDE8F08107
:102E4000206800682840A84201D1012000E000204D
:102E5000B842D3D00020F1E700BFFEE70FB4084B23
:102E600010B504A902AA039800F0CAF8044602A902
:102E7000002000F025FA204610BC5DF814FB00008D
:102E8000C1320008490050EAC12018BF04204A0D91
:102E900018BF40F0010040F2FF72B2EB515F08BF73
:102EA00040F00200012808BF052070470248006872
:102EB000C0F30220704700000CED00E010B50028C0
:102EC00004DB0A07130E054A135406E00A07140E22
:102ED000034A00F00F031B1FD45410BD00E400E0B0
:102EE00018ED00E02DE9F0414F1E00EBC70104464C
:102EF000D1E9000115461E4637F006020DD02A46DC
:102F00003346FDF7D8F97F1E04EBC703D3E900234E
:102F1000FDF72AF937F00602F1D1022F25D0042F50
:102F200013D0062F18BFBDE8F0812A463346FDF7BF
:102F3000C2F9D4E90A23FDF717F92A463346FDF70B
:102F4000BAF9D4E90823FDF70FF92A463346FDF70D
:102F5000B2F9D4E90623FDF707F92A463346FDF70F
:102F6000AAF9D4E90423FDF7FFF82A463346FDF712
:102F7000A2F9D4E90223FDF7F7F82A463346FDF714
:102F80009AF9D4E90023BDE8F041FDF7EDB800005F
:102F90000022134610460149FDF7FFB90000F03F3B
:102FA0000122FDF7A6BBFDF7DFB80022134610464D
:102FB0001146FDF7F2B940F2013200204FF0E04136
:102FC000FDF797BB024A00201107FDF792BB0000F6
:102FD00001FDFFFF02E008C8121F08C1002AFAD154
:102FE00070477047002001E001C1121F002AFBD189
:102FF0007047000001490860704700002000002071
:103000002DE9FF4F8DB09B460F460446002606E093
:1030100025280BD05A460F999047641C761C2078BF
:103020000028F5D111B03046BDE8F08F0025A84644
:103030000122984900E0054314F8013F203B02FAC1
:1030400003F00842F7D120782E2817D114F8010F89
:1030500045F004052A280ED06FF02F022078A0F149
:10306000300109290AD808EB880102EB410100EB85
:103070000108641CF2E757F8048B641C20786C2864
:103080000DD004DC4C2812D06A2811D104E0742839
:103090000DD07A280CD10AE045F4001507E06178DC
:1030A00045F48015814202D1641C05F58015641C2D
:1030B0002278692A45D008DC002AB3D0582A69D082
:1030C000632A10D0642A08D13BE0702A67D0732AA3
:1030D00013D0752A5CD0782A5CD010465A460F99D6
:1030E0009047761CD3E017F8040B8DF80000002001
:1030F0008DF80100E946012003E057F8049B4FF0EA
:10310000FF3069074FF0000501D40AE06D1C45450A
:103110000DDA8542FADB19F805100029F6D106E030
:103120006D1C8542FCDB19F805100029F8D12E44EE
:1031300004E019F8010B5A460F9990476D1EF8D21A
:10314000A5E00A200021CDE90801C5F302500228BC
:103150000DD001CFC117031E71F100030DDA4FF03E
:10316000000CD0EB0C006CEB01012D2308E0FF1DDF
:1031700027F00707F7E80201EDE72B0504D52B231D
:103180008DF8283001233BE0EB0739D02023F7E707
:103190000A2000E010200021CDE9080107E01020FE
:1031A000002145F00405CDE908014FF00808C5F3FA
:1031B000025002280FD001CF00214FF0000A2B0748
:1031C0001FD5702A0DD0DDE908C38CF0100C5CEA25
:1031D000030C0CD015E0FF1D27F00707F7E80201EC
:1031E000EBE740228DF828204FF0010A0BE050EA6F
:1031F000010306D030238DF828308DF829200223D2
:103200009A46582A04D024A20DF120090B9209E015
:1032100026A2F9E7DDE90823FDF785F90B9B9B5C06
:1032200009F8013D50EA0102F4D1ADEB090020306C
:103230000890680701D44FF001080899884502DD1D
:10324000A8EB010000E000208046002506E00AA867
:103250005A46405D0F9990476D1C761C5545F6DB2C
:1032600004E030205A460F999047761CB8F10001CF
:10327000A8F10108F5DC05E019F8010B5A460F9991
:103280009047761C0899481E08900029F4DC641CBD
:10329000C5E60000092801003031323334353637B5
:1032A0003839616263646566000000003031323392
:1032B0003435363738394142434445460000000032
:1032C0000A68531C0B601070704700002DE9F84F1E
:1032D00004460D4621F0004000917349814211DC03
:1032E0007249884201DC06D12CB120462946BDE84E
:1032F000F84FFFF755BE6E48002DCCBF6D496E49A3
:10330000BDE8F88F6D49814211DD6D498142D8BF1A
:103310004FF0FF366DDD20462946FFF7B3FD042848
:1033200008BFFFF74FFE20462946BDE8F88F6549E4
:10333000654F25F00045814233DD6449814219DD46
:10334000002632464FF0804320462946FCF70CFF0A
:1033500080468A46012220462946FDF7CAF9002206
:103360003B46FCF7A2FF42465346FDF716F80446DB
:103370000D463EE001260022BA463B46204629463D
:10338000FCF7F2FE80460F460022534620462946AF
:10339000FCF78BFF42463B46FCF7FFFF04460D4619
:1033A00027E04B4981421BDDDFF828A102260022DD
:1033B000534620462946FCF77EFF00223B46FCF799
:1033C000D3FE80460F460022534620462946FCF78E
:1033D0006CFF42463B46FCF7E0FF04460D4608E022
:1033E000032622462B4600203B49FCF7D6FF044625
:1033F0000D4622462B4610461946FCF75CFF8B46CD
:10340000824602460B46FCF756FF07460246334803
:1034100088460B4606217844FFF764FD52465B461A
:10342000FCF749FF82462E488B463A464346052123
:103430007844FFF757FD3A464346FCF73CFF024607
:103440000B46002E504659460CDAFCF78DFE2246FC
:103450002B46FCF730FF01B022462B46BDE8F04F6B
:10346000FCF726BFFCF780FE22462B46FCF723FF25
:103470001C4A7A4402EBC603D3E90023FCF715FF8C
:1034800022462B46FCF711FF174A7A4402EBC6038B
:10349000D3E90023FCF70CFF009A002AB8BF81F0A3
:1034A0000041BDE8F88F0000000010440000F07FEC
:1034B000182D4454FB21F93FFB21F9BF0000DC3FEC
:1034C0000000203E0000F33F0000F03F0000E63F18
:1034D000008003400000F83F0000F0BF560F0000DE
:1034E000140F0000B20E00007A0E00002DE9F04328
:1034F00091B001244FF47A75282107A8FCF729FE22
:10350000002600200690682706A823467522D021B1
:103510008DE831001D48FDF71FFC9DF81800B842EA
:103520000ED01BA107A8FFF799FC28264FF6FF73C2
:10353000324607A91F48FEF73DFDA800FDF780F9B8
:10354000002005904FF47A70012105AA0B46CDE9C1
:10355000002102906B22D0210C48FDF785FD082048
:1035600004904FF010084FF018094FF47A700121C1
:1035700004AA0B46CDE9002102901C22D021034869
:10358000FDF772FD11B0BDE8F08300008800002057
:10359000434F4E4E454354494F4E5F544F5F414455
:1035A000584C3334355F4552524F52212121200D62
:1035B0000A00000070010020FDF77CFEFFF769FAA9
:1035C000FFF766F9FFF7F6F9FFF72AFAFFF7B6F902
:1035D000FFF7D2F9FFF78AFF16E0012251030B48EB
:1035E000FDF7D2FA3220FDF72BF900224FF40051FB
:1035F0000648FDF7C9FA0520FDF722F9FEF748FD58
:10360000FEF714FE00F0F0FCE7E7000000100140B8
:103610002DE9F04D1D460C4698B0174621F00041AB
:1036200023F00043002814BF4FF0010C4FF0000CB2
:103630000CEB440CFE4A0CEB02064FEA620C6645AA
:103640002BD33E0018BF012606EB45061644F94A67
:10365000964222D3F84A53EA070C02D0944205D18D
:1036600048B918B000201146BDE8F08D002808BF09
:103670004FF0000C01D04FF0010C0CEB440212F59E
:10368000001F0AD8002F14BF4FF0010C4FF0000CA0
:103690000CEB450212F5001F07D918B03A462B462D
:1036A0002146BDE8F04DFFF77EBC0022DFF88CA379
:1036B000002CB8BF534526DADFF884C36345A8BFA2
:1036C000022220DADFF870C39C451CDCDFF874C3EB
:1036D0000CEB235CBCF1140F08DDCCF1340627FAA7
:1036E00006FC0CFA06F6BE420DD108E05FB9CCF13B
:1036F000140623FA06FC0CFA06F69E4203D10CF0DF
:103700000102C2F1020251EA000C19D1002D17DAB0
:10371000002C18BF022A01D0012A07D00220FFF78F
:1037200069FC18B0BDE8F04DFFF732BC0220FFF78E
:1037300061FCFFF72DFC18B081F00041BDE8F08D71
:10374000B7F1000C6CD1534525D104F1804212F53C
:10375000801201BF00280020B74918B008BFBDE89B
:10376000F08DB548884207DC002DA1BF6046294690
:1037700018B0BDE8F08D07E0281E05DA80F00041A2
:1037800018B06046BDE8F08DAF497944D1E9000139
:1037900018B0BDE8F08DDFF8A0C2634525D1002D3B
:1037A0001FDA19B1514512D1D8B909E0002840F00B
:1037B000EC82A24A214618B062F31E01BDE8F08DEA
:1037C0000020214618B060F31E01BDE8F08D08DA34
:1037D00018B02346BDE8F04D024600206146FCF7D4
:1037E000DCBD18B02146BDE8F08D514518DAB5F1C1
:1037F000804F0DD0A5F1005CBCF1FF5C10D1B4F19D
:10380000000C0DDB18B06146BDE8F04D00F04ABD7C
:10381000234618B00246BDE8F04D1946FCF74BBDF3
:10382000060024F0004C3BD1D9B1514533D1002CD6
:1038300006DD002DA1BF0020514618B0BDE8F08D77
:10384000002C01DD002D1BDB002C13DA002D11DB19
:10385000012A4FF0000014BF78497C4918B0BDE838
:10386000F08D022A18BF002C0AD0012A08D1002CA2
:1038700006DA0AE0002CB8BF002D11DA012A04D0C4
:10388000002018B00146BDE8F08D18B000204FF0C0
:103890000041BDE8F08DA1F14050B0F17F601AD039
:1038A000012000EBE47050EA020421D0624C521E69
:1038B0004FF0000B104304BF4FF0000B644C654801
:1038C00083427CDD644A654893421FDD884217DBF2
:1038D000002D25DB37E0002C00DA4AB1022A0CBFAC
:1038E00001204FF0FF3018B0BDE8F04DFCF769BF84
:1038F0000120FFF77FFB18B0BDE8F04DFFF755BB87
:103900004D4A8A4202DC002D0ADC1CE0814202DAC8
:10391000002D18DA04E0484B994220DD002D12DD1D
:103920000220FFF767FBFFF746FB05460E46002225
:10393000534658462146FCF7BEFC18B066F31E01FC
:103940002846BDE8F08D0220FFF754FBFFF73AFB55
:103950000A46214618B062F31E01BDE8F08D002230
:1039600030466146FCF7A1FC80460E466FF001022E
:10397000FCF7BFFE4FF05532394BFCF799FC42463D
:103980003346FCF798FC0022364BFCF791FC82464C
:1039900042463346049110461946FCF78CFC5246C9
:1039A000049BFCF788FC8A4600904FF0C0422E4BE7
:1039B00040463146FCF77FFC2C4A2B4B00E027E0C9
:1039C000CDE9060151460098FCF775FC824601914D
:1039D000274A284B40463146FCF76DFC5246019B76
:1039E000FCF763FC82460B4602460591DDE90601C1
:1039F000FCF7BAFBDDE90623002688463046FCF7D3
:103A000054FC5246059BFCF753FC024600F07EB97D
:103A10000020B1F5801F07DA352230466146FCF7F9
:103A200068FE06466FF0340000EB215024E00000F1
:103A3000FFFF1F00FFFF0F000000F03F0000F07FBE
:103A40000000404301FCFFFF9A0C00000000F0FF63
:103A50000000F0BF0000E0410000F043FFFFEF3F37
:103A60005555D53F0000E03F4715F73FFE822B65D7
:103A700044DF5DF80BAE543EA0F2FF300190C1F37D
:103A8000130040F07F6141F040510291FE498842AD
:103A9000D8BF002004DDFD498142C8BF012001DDFF
:103AA0000D9008E000200D900198401C01900298B4
:103AB000A0F5801002900299F54878440B910D9979
:103AC00000EBC100D0E900230F9330460A920B9916
:103AD000FCF7EBFBCDE90601DDE90A2130460F9B3F
:103AE000FCF742FB02460B460020EA49FCF755FC76
:103AF000059102460B460090DDE90601FCF7DBFB71
:103B00001490E5488A464FF000087844029900680E
:103B100012904FF0005040EA61010D980F9B01EBAD
:103B2000804000F5002109910A9A1298FCF7BDFB2C
:103B300032460B9BFCF7BCFB42465346FCF7BBFBF3
:103B40000646029140465146099B129AFCF7B3FB88
:103B5000DDE90623FCF7ACFB3246029BFCF7A5FB34
:103B6000059B009AFCF7A7FB0091149A049053461A
:103B700010461946FCF79FFB06460246C7480B460F
:103B8000029106217844FFF7ADF9CDE90510029BBB
:103B9000324610461946FCF78EFBDDE90532FCF78C
:103BA0008AFB05910646534640461946149AFCF78F
:103BB000DBFA009B049AFCF77EFB3246059BFCF780
:103BC000D3FACDE905104246534610461946FCF794
:103BD00072FB0022B24B02910A90FCF7C5FADDE9B4
:103BE0000532FCF7C1FA0E464246AD4B4046FCF7A3
:103BF0005CFB029B0A9AFCF758FBDDE90532FCF7F7
:103C000057FB424602910A90334610465146FCF754
:103C100052FBCDE906015346149A02990A98FCF723
:103C20004AFB8A4602903346424600990498FCF7C4
:103C300042FB5346029AFCF797FA82460B4602462D
:103C40000591DDE90601FCF78FFADDE90623002086
:103C500088460646FCF729FB5246059BFCF728FBE5
:103C6000824609914FF060428E4B30464146FCF748
:103C700022FB049006918C4A8A4B50460999FCF726
:103C80001AFB82460291894A894B30464146FCF72D
:103C900012FB5246029BFCF767FA864B7B440D9A57
:103CA00003EBC203D3E90023FCF75EFA0E90079101
:103CB0000198FCF786FD0591DDE9061382460E9A10
:103CC0000498FCF751FA7C4A7A440D9B02EBC3033B
:103CD000D3E9002300930292FCF746FA5246059B73
:103CE000FCF742FA0026884652463046059BFCF710
:103CF000DCFA009B029AFCF7D8FA069B049AFCF7C0
:103D0000D4FA079B0E9AFCF7D3FA024600200B4622
:103D1000029038462946FCF7CEFA824601912B469E
:103D200038461946029AFCF7C0FA32464346FCF779
:103D3000C2FA5246019BFCF717FA07468A463246FA
:103D4000434629460298FCF7B6FA05460E463A461F
:103D50005346FCF709FA594A8846914221DBA8EB01
:103D6000020353EA000210D12A463346FCF79DFABB
:103D7000CDE90401524A534B38465146FCF7F4F959
:103D8000DDE90423FCF72EFD21D20220FFF732F9F2
:103D9000FFF711F90A46214618B062F31E01BDE88B
:103DA000F08D494B28F000429A4210D3474A08EB65
:103DB000020353EA00027FF4C6AD2A463346FCF7FD
:103DC00074FA3A465346FCF70DFD7FF6BCAD00226F
:103DD000019228F000403E493E4A01EB20518242C8
:103DE00023DA481C4FF4801121FA00F040443A4A8B
:103DF000C0F30A517A44394BA1F2FF31CB4020EA9B
:103E00000303C0F3130040F48010C1F11401C84053
:103E100012680190B8F1000FBCBF404201902846E3
:103E20003146FCF742FA05460E462A4633463846E6
:103E30005146FCF799F94FF000084246284B40469E
:103E40000591FCF738FACDE90601264A264B404693
:103E50000599FCF730FA009102902A463346404615
:103E60000599FCF722FA3A465346FCF721FA1F4A15
:103E70001F4BFCF720FA009B029AFCF775F90746E6
:103E8000884602460B4635E08E9803007AB60B0052
:103E9000E20800000000F03F1A0900004808000096
:103EA0000000084009C7EE3FFD033ADCF5015B1452
:103EB000E02F3EBE20070000E40600000000904016
:103EC000FE822B654715973C00CC904000346F3F35
:103ED00001FCFFFF0000E03F30060000FFFF0F0085
:103EE000432EE63F396CA80C615C20BEEF39FAFE28
:103EF000422EE63FDDE90601FCF736F9DDE906234F
:103F000005460E46FCF7D1F93A464346FCF7D0F990
:103F10000F462A463346009010461946FCF7CBF967
:103F2000824602462E4888460B4605217844FEF715
:103F3000D9FF52464346FCF7BEF92A463346FCF702
:103F4000B7F980468A463B4628463146009AFCF738
:103F5000B2F93B46009AFCF707F90691009000225F
:103F60004FF0804340465146FCF79FF90F460C90B6
:103F70004246534628463146FCF79DF93B460C9A8B
:103F8000FCF70BFA069B009AFCF78FF92A4633469A
:103F9000FCF78BF90022134BFCF78AF905460198D0
:103FA0000E4601EB00510815002810DC284631466A
:103FB000019AFCF79EFBFEF765FF042808BFFFF798
:103FC00001F828463146019AFCF793FB05460B465B
:103FD00018B02A4658462146BDE8F04DFCF76BB9AB
:103FE000D00400000000F03F2DE9F04FB1B00020F8
:103FF0002F90309083464FF47A7006212FAA012328
:10400000CDE9002102903B22D0219348FCF7A4FE89
:104010009DF8BD009DF8BC1040EA012004B29DF857
:10402000BF009DF8BE1040EA01200FFA80F99DF80C
:10403000C1009DF8C01040EA01200FFA80FA204626
:10404000FCF71AFA0F90FCF73FFA07460022834B61
:10405000FCF7A3F90546FCF74AFA2E904846FCF710
:104060000BFA0F90FCF730FA074600227B4BFCF767
:1040700094F90546FCF73BFA2D905046FCF7FCF905
:104080000F90FCF721FA07460022744BFCF785F9E4
:104090000546FCF72CFA2C905046FCF7EDF9019000
:1040A000FCF712FA054600224FF08043FFF7B0FA02
:1040B000CDE904014846FCF7DFF90190FCF704FA6A
:1040C000054600224FF08043FFF7A2FACDE9020136
:1040D000DDE90423FCF748F8CDE9060100F0E2F839
:1040E000CDE908016042FCF7C7F90546FCF7ECF999
:1040F0000746DDE90823FCF750F9CDE90A01FFF78F
:10410000E5F8574A574BCDE90C01FCF7D4F8CDE957
:104110000E01FCF7BAF900B22B905046FCF7ACF94F
:104120000190FCF7D1F9054600224FF08043FFF7DC
:104130006FFACDE904012046FCF79EF90190FCF7E7
:10414000C3F9054600224FF08043FFF761FACDE93D
:104150000201DDE90423FCF707F8CDE9060100F0D0
:10416000A1F807468846C9F10000FCF785F9054625
:10417000FCF7AAF93A464346CDE90801FCF70DF9E8
:10418000CDE90A01FFF7A2F8354A364BCDE90C011B
:10419000FCF791F8CDE90E01FCF777F900B22A900F
:1041A0004846FCF769F90190FCF78EF905460022B4
:1041B0004FF08043FFF72CFA074688462046FCF76D
:1041C0005BF90190FCF780F9054600224FF080432F
:1041D000FFF71EFA3A464346CDE90201FBF7C4FF5A
:1041E000CDE9040100F05EF8CDE90801CAF1000054
:1041F000FCF742F90546FCF767F9CDE90601DDE970
:104200000823FCF7CAF8CDE90A01FFF75FF8144A62
:10421000144BCDE90C01FCF74EF8CDE90E01FCF78B
:1042200034F900B2299000BF642110A8FBF791FF78
:10423000299800900CA110A8DDE92A32FEF70EFEA5
:104240004FF0640B4FF6FF735A4610A91448FDF760
:10425000B1FE31B0BDE8F08F880000200000C04002
:10426000F6285C8FC2A54C40585F6163635F76613E
:104270006C75653A2025642C20595F6163635F7615
:10428000616C75653A2025642C205A5F6163635F19
:1042900076616C75653A2025642C0D0A00000000DB
:1042A000700100202DE9F04106460F46FCF738FA70
:1042B000041E0D4618BF0120284320F00040C0F125
:1042C0007F6000F1E040C00F0ED0301C18BF01200D
:1042D000384320F00040C0F17F6000F1E040C00FA3
:1042E00004BF0120FEF786FE20462946BDE8F08186
:1042F0000000000000000000010203040607080996
:1043000000000000010203044FBB610567ACDD3F04
:10431000182D4454FB21E93F9BF681D20B73EF3FEC
:10432000182D4454FB21F93FE2652F227F2B7A3C64
:10433000075C143326A6813CBDCBF07A8807703C1D
:10434000075C143326A6913CC4EB98999999C9BF90
:10435000711623FEC671BCBF6D9A74AFF2B0B3BFC5
:104360009AFDDE522DDEADBF2F6C6A2C44B4A2BF85
:104370000D5555555555D53FFF8300922449C23FF1
:104380006E204CC5CD45B73F513DD0A0660DB13F25
:10439000EB0D76244B7BA93F11DA22E33AAD903F37
:1043A000000000000000F03F000000000000F83FA7
:1043B00000000000000000000000004003B8E23FE1
:1043C000000000000000000006D0CF43EBFD4C3E93
:1043D000033333333333E33FFFAB6FDBB66DDB3F88
:1043E0004D268F515555D53F01411DA96074D13FD0
:1043F00065DBC9934A86CD3FEF4E454A287ECA3FCA
:104400003E5555555555C53F93BDBE166CC166BF4B
:104410002CDE25AF6A56113FF16BD2C541BDBBBE44
:10442000D0A4BE726937663E0000000000000000A4
:10443000504400080000002024000000D42F000891
:1044400074440008240000208C050000E42F0008BC
:104450000000010000000000E80300000000000070
:104460000000000010000000010000000024F40023
:044470000000000048
:04000005080000ED02
:00000001FF
